{
  "contractName": "MnemonicVault",
  "abi": [
    {
      "constant": false,
      "inputs": [
        {
          "name": "_name",
          "type": "string"
        },
        {
          "name": "_key",
          "type": "string"
        },
        {
          "name": "_issuerName",
          "type": "string"
        },
        {
          "name": "_expirationTime",
          "type": "uint256"
        },
        {
          "name": "_offchainUrl",
          "type": "string"
        }
      ],
      "name": "addDocument",
      "outputs": [],
      "payable": false,
      "stateMutability": "nonpayable",
      "type": "function"
    },
    {
      "constant": true,
      "inputs": [
        {
          "name": "_id",
          "type": "uint256"
        }
      ],
      "name": "getDocument",
      "outputs": [
        {
          "name": "_name",
          "type": "string"
        },
        {
          "name": "_key",
          "type": "string"
        },
        {
          "name": "_issuer",
          "type": "address"
        },
        {
          "name": "_issuerName",
          "type": "string"
        },
        {
          "name": "_issueTime",
          "type": "uint256"
        },
        {
          "name": "_expirationTime",
          "type": "uint256"
        },
        {
          "name": "_offchainUrl",
          "type": "string"
        }
      ],
      "payable": false,
      "stateMutability": "view",
      "type": "function"
    },
    {
      "constant": true,
      "inputs": [
        {
          "name": "_issuer",
          "type": "address"
        },
        {
          "name": "_key",
          "type": "string"
        }
      ],
      "name": "retrieveDocument",
      "outputs": [
        {
          "name": "_id",
          "type": "uint256"
        },
        {
          "name": "_name",
          "type": "string"
        },
        {
          "name": "_issuerName",
          "type": "string"
        },
        {
          "name": "_issueTime",
          "type": "uint256"
        },
        {
          "name": "_expirationTime",
          "type": "uint256"
        },
        {
          "name": "_offchainUrl",
          "type": "string"
        }
      ],
      "payable": false,
      "stateMutability": "view",
      "type": "function"
    },
    {
      "constant": false,
      "inputs": [
        {
          "name": "_issuer",
          "type": "address"
        },
        {
          "name": "_key",
          "type": "string"
        },
        {
          "name": "_requestor",
          "type": "address"
        }
      ],
      "name": "rejectGrant",
      "outputs": [],
      "payable": false,
      "stateMutability": "nonpayable",
      "type": "function"
    },
    {
      "constant": true,
      "inputs": [],
      "name": "owner",
      "outputs": [
        {
          "name": "",
          "type": "address"
        }
      ],
      "payable": false,
      "stateMutability": "view",
      "type": "function"
    },
    {
      "constant": false,
      "inputs": [
        {
          "name": "_issuer",
          "type": "address"
        },
        {
          "name": "_key",
          "type": "string"
        },
        {
          "name": "_requestorName",
          "type": "string"
        }
      ],
      "name": "requestGrant",
      "outputs": [],
      "payable": false,
      "stateMutability": "nonpayable",
      "type": "function"
    },
    {
      "constant": false,
      "inputs": [
        {
          "name": "_issuer",
          "type": "address"
        },
        {
          "name": "_key",
          "type": "string"
        },
        {
          "name": "_requestor",
          "type": "address"
        }
      ],
      "name": "acceptGrant",
      "outputs": [],
      "payable": false,
      "stateMutability": "nonpayable",
      "type": "function"
    },
    {
      "constant": true,
      "inputs": [],
      "name": "getTotalDocuments",
      "outputs": [
        {
          "name": "_totalDocuments",
          "type": "uint256"
        }
      ],
      "payable": false,
      "stateMutability": "view",
      "type": "function"
    },
    {
      "constant": false,
      "inputs": [
        {
          "name": "newOwner",
          "type": "address"
        }
      ],
      "name": "transferOwnership",
      "outputs": [],
      "payable": false,
      "stateMutability": "nonpayable",
      "type": "function"
    },
    {
      "inputs": [],
      "payable": false,
      "stateMutability": "nonpayable",
      "type": "constructor"
    },
    {
      "anonymous": false,
      "inputs": [
        {
          "indexed": false,
          "name": "_issuer",
          "type": "address"
        },
        {
          "indexed": false,
          "name": "_key",
          "type": "string"
        },
        {
          "indexed": false,
          "name": "_requestor",
          "type": "address"
        },
        {
          "indexed": false,
          "name": "_requestorName",
          "type": "string"
        }
      ],
      "name": "GrantRequested",
      "type": "event"
    },
    {
      "anonymous": false,
      "inputs": [
        {
          "indexed": false,
          "name": "_issuer",
          "type": "address"
        },
        {
          "indexed": false,
          "name": "_key",
          "type": "string"
        },
        {
          "indexed": false,
          "name": "_requestor",
          "type": "address"
        }
      ],
      "name": "GrantAccepted",
      "type": "event"
    },
    {
      "anonymous": false,
      "inputs": [
        {
          "indexed": false,
          "name": "_issuer",
          "type": "address"
        },
        {
          "indexed": false,
          "name": "_key",
          "type": "string"
        },
        {
          "indexed": false,
          "name": "_requestor",
          "type": "address"
        }
      ],
      "name": "GrantRejected",
      "type": "event"
    },
    {
      "anonymous": false,
      "inputs": [
        {
          "indexed": true,
          "name": "previousOwner",
          "type": "address"
        },
        {
          "indexed": true,
          "name": "newOwner",
          "type": "address"
        }
      ],
      "name": "OwnershipTransferred",
      "type": "event"
    }
  ],
  "bytecode": "0x6060604052341561000f57600080fd5b336000806101000a81548173ffffffffffffffffffffffffffffffffffffffff021916908373ffffffffffffffffffffffffffffffffffffffff1602179055506000600181905550612665806100666000396000f300606060405260043610610099576000357c0100000000000000000000000000000000000000000000000000000000900463ffffffff16806302bb28c31461009e5780633f9b250a146101cd57806345dc2769146103ee5780635df842b8146105d05780638da5cb5b1461066b578063b2d1535f146106c0578063c0a25dda1461077f578063e90e7ad41461081a578063f2fde38b14610843575b600080fd5b34156100a957600080fd5b6101cb600480803590602001908201803590602001908080601f0160208091040260200160405190810160405280939291908181526020018383808284378201915050505050509190803590602001908201803590602001908080601f0160208091040260200160405190810160405280939291908181526020018383808284378201915050505050509190803590602001908201803590602001908080601f0160208091040260200160405190810160405280939291908181526020018383808284378201915050505050509190803590602001909190803590602001908201803590602001908080601f0160208091040260200160405190810160405280939291908181526020018383808284378201915050505050509190505061087c565b005b34156101d857600080fd5b6101ee6004808035906020019091905050610b73565b6040518080602001806020018873ffffffffffffffffffffffffffffffffffffffff1673ffffffffffffffffffffffffffffffffffffffff168152602001806020018781526020018681526020018060200185810385528c818151815260200191508051906020019080838360005b8381101561027857808201518184015260208101905061025d565b50505050905090810190601f1680156102a55780820380516001836020036101000a031916815260200191505b5085810384528b818151815260200191508051906020019080838360005b838110156102de5780820151818401526020810190506102c3565b50505050905090810190601f16801561030b5780820380516001836020036101000a031916815260200191505b50858103835289818151815260200191508051906020019080838360005b83811015610344578082015181840152602081019050610329565b50505050905090810190601f1680156103715780820380516001836020036101000a031916815260200191505b50858103825286818151815260200191508051906020019080838360005b838110156103aa57808201518184015260208101905061038f565b50505050905090810190601f1680156103d75780820380516001836020036101000a031916815260200191505b509b50505050505050505050505060405180910390f35b34156103f957600080fd5b610468600480803573ffffffffffffffffffffffffffffffffffffffff1690602001909190803590602001908201803590602001908080601f01602080910402602001604051908101604052809392919081815260200183838082843782019150505050505091905050610f62565b60405180878152602001806020018060200186815260200185815260200180602001848103845289818151815260200191508051906020019080838360005b838110156104c25780820151818401526020810190506104a7565b50505050905090810190601f1680156104ef5780820380516001836020036101000a031916815260200191505b50848103835288818151815260200191508051906020019080838360005b8381101561052857808201518184015260208101905061050d565b50505050905090810190601f1680156105555780820380516001836020036101000a031916815260200191505b50848103825285818151815260200191508051906020019080838360005b8381101561058e578082015181840152602081019050610573565b50505050905090810190601f1680156105bb5780820380516001836020036101000a031916815260200191505b50995050505050505050505060405180910390f35b34156105db57600080fd5b610669600480803573ffffffffffffffffffffffffffffffffffffffff1690602001909190803590602001908201803590602001908080601f0160208091040260200160405190810160405280939291908181526020018383808284378201915050505050509190803573ffffffffffffffffffffffffffffffffffffffff169060200190919050506114a2565b005b341561067657600080fd5b61067e611967565b604051808273ffffffffffffffffffffffffffffffffffffffff1673ffffffffffffffffffffffffffffffffffffffff16815260200191505060405180910390f35b34156106cb57600080fd5b61077d600480803573ffffffffffffffffffffffffffffffffffffffff1690602001909190803590602001908201803590602001908080601f0160208091040260200160405190810160405280939291908181526020018383808284378201915050505050509190803590602001908201803590602001908080601f0160208091040260200160405190810160405280939291908181526020018383808284378201915050505050509190505061198c565b005b341561078a57600080fd5b610818600480803573ffffffffffffffffffffffffffffffffffffffff1690602001909190803590602001908201803590602001908080601f0160208091040260200160405190810160405280939291908181526020018383808284378201915050505050509190803573ffffffffffffffffffffffffffffffffffffffff16906020019091905050611d72565b005b341561082557600080fd5b61082d612236565b6040518082815260200191505060405180910390f35b341561084e57600080fd5b61087a600480803573ffffffffffffffffffffffffffffffffffffffff1690602001909190505061229b565b005b6000806108876123f0565b339250429150600180600082825401925050819055506101006040519081016040528060015481526020018981526020018881526020018473ffffffffffffffffffffffffffffffffffffffff16815260200187815260200183815260200186815260200185815250905080600260008573ffffffffffffffffffffffffffffffffffffffff1673ffffffffffffffffffffffffffffffffffffffff168152602001908152602001600020886040518082805190602001908083835b6020831015156109685780518252602082019150602081019050602083039250610943565b6001836020036101000a03801982511681845116808217855250505050505090500191505090815260200160405180910390206000820151816000015560208201518160010190805190602001906109c1929190612464565b5060408201518160020190805190602001906109de929190612464565b5060608201518160030160006101000a81548173ffffffffffffffffffffffffffffffffffffffff021916908373ffffffffffffffffffffffffffffffffffffffff1602179055506080820151816004019080519060200190610a42929190612464565b5060a0820151816005015560c0820151816006015560e0820151816007019080519060200190610a73929190612464565b5090505080600560006001548152602001908152602001600020600082015181600001556020820151816001019080519060200190610ab3929190612464565b506040820151816002019080519060200190610ad0929190612464565b5060608201518160030160006101000a81548173ffffffffffffffffffffffffffffffffffffffff021916908373ffffffffffffffffffffffffffffffffffffffff1602179055506080820151816004019080519060200190610b34929190612464565b5060a0820151816005015560c0820151816006015560e0820151816007019080519060200190610b65929190612464565b509050505050505050505050565b610b7b6124e4565b610b836124e4565b6000610b8d6124e4565b600080610b986124e4565b610ba06123f0565b6000809054906101000a900473ffffffffffffffffffffffffffffffffffffffff1673ffffffffffffffffffffffffffffffffffffffff163373ffffffffffffffffffffffffffffffffffffffff16141515610bfb57600080fd5b600560008a8152602001908152602001600020610100604051908101604052908160008201548152602001600182018054600181600116156101000203166002900480601f016020809104026020016040519081016040528092919081815260200182805460018160011615610100020316600290048015610cbe5780601f10610c9357610100808354040283529160200191610cbe565b820191906000526020600020905b815481529060010190602001808311610ca157829003601f168201915b50505050508152602001600282018054600181600116156101000203166002900480601f016020809104026020016040519081016040528092919081815260200182805460018160011615610100020316600290048015610d605780601f10610d3557610100808354040283529160200191610d60565b820191906000526020600020905b815481529060010190602001808311610d4357829003601f168201915b505050505081526020016003820160009054906101000a900473ffffffffffffffffffffffffffffffffffffffff1673ffffffffffffffffffffffffffffffffffffffff1673ffffffffffffffffffffffffffffffffffffffff168152602001600482018054600181600116156101000203166002900480601f016020809104026020016040519081016040528092919081815260200182805460018160011615610100020316600290048015610e585780601f10610e2d57610100808354040283529160200191610e58565b820191906000526020600020905b815481529060010190602001808311610e3b57829003601f168201915b505050505081526020016005820154815260200160068201548152602001600782018054600181600116156101000203166002900480601f016020809104026020016040519081016040528092919081815260200182805460018160011615610100020316600290048015610f0e5780601f10610ee357610100808354040283529160200191610f0e565b820191906000526020600020905b815481529060010190602001808311610ef157829003601f168201915b505050505081525050905080602001518160400151826060015183608001518460a001518560c001518660e00151869650859550839350809050975097509750975097509750975050919395979092949650565b6000610f6c6124e4565b610f746124e4565b600080610f7f6124e4565b6000610f896123f0565b89896000600360003373ffffffffffffffffffffffffffffffffffffffff1673ffffffffffffffffffffffffffffffffffffffff16815260200190815260200160002060008473ffffffffffffffffffffffffffffffffffffffff1673ffffffffffffffffffffffffffffffffffffffff168152602001908152602001600020826040518082805190602001908083835b60208310151561103f578051825260208201915060208101905060208303925061101a565b6001836020036101000a038019825116818451168082178552505050505050905001915050908152602001604051809103902090506001600281111561108157fe5b8160060160009054906101000a900460ff16600281111561109e57fe5b1415156110aa57600080fd5b339450600260008e73ffffffffffffffffffffffffffffffffffffffff1673ffffffffffffffffffffffffffffffffffffffff1681526020019081526020016000208c6040518082805190602001908083835b60208310151561112257805182526020820191506020810190506020830392506110fd565b6001836020036101000a0380198251168184511680821785525050505050509050019150509081526020016040518091039020610100604051908101604052908160008201548152602001600182018054600181600116156101000203166002900480601f0160208091040260200160405190810160405280929190818152602001828054600181600116156101000203166002900480156112055780601f106111da57610100808354040283529160200191611205565b820191906000526020600020905b8154815290600101906020018083116111e857829003601f168201915b50505050508152602001600282018054600181600116156101000203166002900480601f0160208091040260200160405190810160405280929190818152602001828054600181600116156101000203166002900480156112a75780601f1061127c576101008083540402835291602001916112a7565b820191906000526020600020905b81548152906001019060200180831161128a57829003601f168201915b505050505081526020016003820160009054906101000a900473ffffffffffffffffffffffffffffffffffffffff1673ffffffffffffffffffffffffffffffffffffffff1673ffffffffffffffffffffffffffffffffffffffff168152602001600482018054600181600116156101000203166002900480601f01602080910402602001604051908101604052809291908181526020018280546001816001161561010002031660029004801561139f5780601f106113745761010080835404028352916020019161139f565b820191906000526020600020905b81548152906001019060200180831161138257829003601f168201915b505050505081526020016005820154815260200160068201548152602001600782018054600181600116156101000203166002900480601f0160208091040260200160405190810160405280929190818152602001828054600181600116156101000203166002900480156114555780601f1061142a57610100808354040283529160200191611455565b820191906000526020600020905b81548152906001019060200180831161143857829003601f168201915b50505050508152505093508360000151846020015185608001518660a001518760c001518860e001518494508393508090509a509a509a509a509a509a5050505050509295509295509295565b60008060009054906101000a900473ffffffffffffffffffffffffffffffffffffffff1673ffffffffffffffffffffffffffffffffffffffff163373ffffffffffffffffffffffffffffffffffffffff161415156114ff57600080fd5b600360008373ffffffffffffffffffffffffffffffffffffffff1673ffffffffffffffffffffffffffffffffffffffff16815260200190815260200160002060008573ffffffffffffffffffffffffffffffffffffffff1673ffffffffffffffffffffffffffffffffffffffff168152602001908152602001600020836040518082805190602001908083835b6020831015156115b1578051825260208201915060208101905060208303925061158c565b6001836020036101000a0380198251168184511680821785525050505050509050019150509081526020016040518091039020905060028160060160006101000a81548160ff0219169083600281111561160757fe5b021790555080600360008473ffffffffffffffffffffffffffffffffffffffff1673ffffffffffffffffffffffffffffffffffffffff16815260200190815260200160002060008673ffffffffffffffffffffffffffffffffffffffff1673ffffffffffffffffffffffffffffffffffffffff168152602001908152602001600020846040518082805190602001908083835b6020831015156116bf578051825260208201915060208101905060208303925061169a565b6001836020036101000a03801982511681845116808217855250505050505090500191505090815260200160405180910390206000820160009054906101000a900473ffffffffffffffffffffffffffffffffffffffff168160000160006101000a81548173ffffffffffffffffffffffffffffffffffffffff021916908373ffffffffffffffffffffffffffffffffffffffff160217905550600182018160010190805460018160011615610100020316600290046117809291906124f8565b506002820160009054906101000a900473ffffffffffffffffffffffffffffffffffffffff168160020160006101000a81548173ffffffffffffffffffffffffffffffffffffffff021916908373ffffffffffffffffffffffffffffffffffffffff1602179055506003820181600301908054600181600116156101000203166002900461180f9291906124f8565b5060048201548160040155600582015481600501556006820160009054906101000a900460ff168160060160006101000a81548160ff0219169083600281111561185557fe5b02179055509050507f38f6f81d8bd8aa2fbf877a15443cb689abc03125243049b04d26fb7784a59706848484604051808473ffffffffffffffffffffffffffffffffffffffff1673ffffffffffffffffffffffffffffffffffffffff168152602001806020018373ffffffffffffffffffffffffffffffffffffffff1673ffffffffffffffffffffffffffffffffffffffff168152602001828103825284818151815260200191508051906020019080838360005b8381101561192557808201518184015260208101905061190a565b50505050905090810190601f1680156119525780820380516001836020036101000a031916815260200191505b5094505050505060405180910390a150505050565b6000809054906101000a900473ffffffffffffffffffffffffffffffffffffffff1681565b600061199661257f565b33915060e0604051908101604052808673ffffffffffffffffffffffffffffffffffffffff1681526020018581526020018373ffffffffffffffffffffffffffffffffffffffff1681526020018481526020014281526020016236ee804201815260200160006002811115611a0757fe5b815250905080600360008473ffffffffffffffffffffffffffffffffffffffff1673ffffffffffffffffffffffffffffffffffffffff16815260200190815260200160002060008773ffffffffffffffffffffffffffffffffffffffff1673ffffffffffffffffffffffffffffffffffffffff168152602001908152602001600020856040518082805190602001908083835b602083101515611abf5780518252602082019150602081019050602083039250611a9a565b6001836020036101000a038019825116818451168082178552505050505050905001915050908152602001604051809103902060008201518160000160006101000a81548173ffffffffffffffffffffffffffffffffffffffff021916908373ffffffffffffffffffffffffffffffffffffffff1602179055506020820151816001019080519060200190611b55929190612464565b5060408201518160020160006101000a81548173ffffffffffffffffffffffffffffffffffffffff021916908373ffffffffffffffffffffffffffffffffffffffff1602179055506060820151816003019080519060200190611bb9929190612464565b506080820151816004015560a0820151816005015560c08201518160060160006101000a81548160ff02191690836002811115611bf257fe5b02179055509050507fbd7f7f63f40fb1e37319a3de4255ffec0f731f924c866dfe386d1c1732bff0a085858486604051808573ffffffffffffffffffffffffffffffffffffffff1673ffffffffffffffffffffffffffffffffffffffff168152602001806020018473ffffffffffffffffffffffffffffffffffffffff1673ffffffffffffffffffffffffffffffffffffffff16815260200180602001838103835286818151815260200191508051906020019080838360005b83811015611cc7578082015181840152602081019050611cac565b50505050905090810190601f168015611cf45780820380516001836020036101000a031916815260200191505b50838103825284818151815260200191508051906020019080838360005b83811015611d2d578082015181840152602081019050611d12565b50505050905090810190601f168015611d5a5780820380516001836020036101000a031916815260200191505b50965050505050505060405180910390a15050505050565b60008060009054906101000a900473ffffffffffffffffffffffffffffffffffffffff1673ffffffffffffffffffffffffffffffffffffffff163373ffffffffffffffffffffffffffffffffffffffff16141515611dcf57600080fd5b600360008373ffffffffffffffffffffffffffffffffffffffff1673ffffffffffffffffffffffffffffffffffffffff16815260200190815260200160002060008573ffffffffffffffffffffffffffffffffffffffff1673ffffffffffffffffffffffffffffffffffffffff168152602001908152602001600020836040518082805190602001908083835b602083101515611e815780518252602082019150602081019050602083039250611e5c565b6001836020036101000a0380198251168184511680821785525050505050509050019150509081526020016040518091039020905060018160060160006101000a81548160ff02191690836002811115611ed757fe5b021790555080600360008473ffffffffffffffffffffffffffffffffffffffff1673ffffffffffffffffffffffffffffffffffffffff16815260200190815260200160002060008673ffffffffffffffffffffffffffffffffffffffff1673ffffffffffffffffffffffffffffffffffffffff168152602001908152602001600020846040518082805190602001908083835b602083101515611f8f5780518252602082019150602081019050602083039250611f6a565b6001836020036101000a03801982511681845116808217855250505050505090500191505090815260200160405180910390206000820160009054906101000a900473ffffffffffffffffffffffffffffffffffffffff168160000160006101000a81548173ffffffffffffffffffffffffffffffffffffffff021916908373ffffffffffffffffffffffffffffffffffffffff160217905550600182018160010190805460018160011615610100020316600290046120509291906124f8565b506002820160009054906101000a900473ffffffffffffffffffffffffffffffffffffffff168160020160006101000a81548173ffffffffffffffffffffffffffffffffffffffff021916908373ffffffffffffffffffffffffffffffffffffffff160217905550600382018160030190805460018160011615610100020316600290046120df9291906124f8565b5060048201548160040155600582015481600501556006820160009054906101000a900460ff168160060160006101000a81548160ff0219169083600281111561212557fe5b02179055509050507ebc695e92b87a69d6323f8d27c6153583ea182f96832a8bb9b7547fdca74e1e848484604051808473ffffffffffffffffffffffffffffffffffffffff1673ffffffffffffffffffffffffffffffffffffffff168152602001806020018373ffffffffffffffffffffffffffffffffffffffff1673ffffffffffffffffffffffffffffffffffffffff168152602001828103825284818151815260200191508051906020019080838360005b838110156121f45780820151818401526020810190506121d9565b50505050905090810190601f1680156122215780820380516001836020036101000a031916815260200191505b5094505050505060405180910390a150505050565b60008060009054906101000a900473ffffffffffffffffffffffffffffffffffffffff1673ffffffffffffffffffffffffffffffffffffffff163373ffffffffffffffffffffffffffffffffffffffff1614151561229357600080fd5b600154905090565b6000809054906101000a900473ffffffffffffffffffffffffffffffffffffffff1673ffffffffffffffffffffffffffffffffffffffff163373ffffffffffffffffffffffffffffffffffffffff161415156122f657600080fd5b600073ffffffffffffffffffffffffffffffffffffffff168173ffffffffffffffffffffffffffffffffffffffff161415151561233257600080fd5b8073ffffffffffffffffffffffffffffffffffffffff166000809054906101000a900473ffffffffffffffffffffffffffffffffffffffff1673ffffffffffffffffffffffffffffffffffffffff167f8be0079c531659141344cd1fd0a4f28419497f9722a3daafe3b4186f6b6457e060405160405180910390a3806000806101000a81548173ffffffffffffffffffffffffffffffffffffffff021916908373ffffffffffffffffffffffffffffffffffffffff16021790555050565b610100604051908101604052806000815260200161240c612600565b8152602001612419612600565b8152602001600073ffffffffffffffffffffffffffffffffffffffff168152602001612443612600565b8152602001600081526020016000815260200161245e612600565b81525090565b828054600181600116156101000203166002900490600052602060002090601f016020900481019282601f106124a557805160ff19168380011785556124d3565b828001600101855582156124d3579182015b828111156124d25782518255916020019190600101906124b7565b5b5090506124e09190612614565b5090565b602060405190810160405280600081525090565b828054600181600116156101000203166002900490600052602060002090601f016020900481019282601f10612531578054855561256e565b8280016001018555821561256e57600052602060002091601f016020900482015b8281111561256d578254825591600101919060010190612552565b5b50905061257b9190612614565b5090565b60e060405190810160405280600073ffffffffffffffffffffffffffffffffffffffff1681526020016125b0612600565b8152602001600073ffffffffffffffffffffffffffffffffffffffff1681526020016125da612600565b81526020016000815260200160008152602001600060028111156125fa57fe5b81525090565b602060405190810160405280600081525090565b61263691905b8082111561263257600081600090555060010161261a565b5090565b905600a165627a7a72305820f71d4f7daf42752aee68d8106cccc1b175aa51ebf905879657956ab0868abcf20029",
  "source": "pragma solidity ^0.4.18;\n\nimport 'zeppelin-solidity/contracts/ownership/Ownable.sol';\n\ncontract MnemonicVault is Ownable {\n\n  struct Document {\n    uint id;\n    string name;\n    string key;  \n    address issuer;\n    string issuerName;\n    uint issueTime;\n    uint expirationTime;\n    string offchainUrl;\n  }\n\n  struct Claim {\n    address claimer;\n    string claimerName;\n    uint claimTime;\n  }\n\n  enum GrantRequestStatus { PENDING, GRANTED, REJECTED }\n\n  struct GrantRequest {\n    address issuer;\n    string key;\n    address requestor;\n    string requestorName;\n    uint requestTime;\n    uint requestExpirationTime;\n    GrantRequestStatus status;\n  }\n\n  uint docIndex;\n  mapping(address => mapping(string => Document)) documents;\n  mapping(address => mapping(address => mapping(string => GrantRequest))) grants;\n  mapping(address => mapping(string => Claim)) claims;  \n  mapping(uint => Document) allDocuments;\n\n  event GrantRequested(address _issuer, string _key, address _requestor, string _requestorName);\n  event GrantAccepted(address _issuer, string _key, address _requestor);\n  event GrantRejected(address _issuer, string _key, address _requestor);  \n \n  modifier onlyWithGrant(address _issuer, string _key) {\n    GrantRequest storage grant = grants[msg.sender][_issuer][_key];\n    require(grant.status == GrantRequestStatus.GRANTED);\n    _;\n  }\n\n\n  function MnemonicVault() public {\n    docIndex = 0;\n  }\n\n\n  function getTotalDocuments() view\n      public\n      onlyOwner()\n      returns (uint _totalDocuments)\n  {\n    return docIndex;\n  }\n\n\n  function getDocument(uint _id) view\n      public\n      onlyOwner()\n      returns (\n        string _name,\n    \tstring _key, \n    \taddress _issuer,\n    \tstring _issuerName,\n    \tuint _issueTime,\n    \tuint _expirationTime,\n    \tstring _offchainUrl)\n  {\n    Document memory doc = allDocuments[_id];\n    return (doc.name,\n    \t    doc.key,\n\t    doc.issuer,\n\t    doc.issuerName,\n\t    doc.issueTime,\n\t    doc.expirationTime,\n\t    doc.offchainUrl);\n  }\n\n\n  function retrieveDocument(address _issuer, string _key) view\n      public\n      onlyWithGrant(_issuer, _key)\n      returns (\n        uint _id,\n        string _name,\n    \tstring _issuerName,\n    \tuint _issueTime,\n    \tuint _expirationTime,\n    \tstring _offchainUrl)\n  {\n    address requestor = msg.sender;\n    Document memory doc = documents[_issuer][_key];\n    return (doc.id,\n            doc.name,\n\t    doc.issuerName,\n\t    doc.issueTime,\n\t    doc.expirationTime,\n\t    doc.offchainUrl);\n  }\n\n\n  function requestGrant(\n      address _issuer,\n      string _key,\n      string _requestorName)\n      public\n  {\n    address requestor = msg.sender;\n    GrantRequest memory request = GrantRequest(\n      _issuer,\n      _key,\n      requestor,\n      _requestorName,\n      now,\n      now + 60 * 60 * 1000,\n      GrantRequestStatus.PENDING);\n    grants[requestor][_issuer][_key] = request;\n    GrantRequested(_issuer, _key, requestor, _requestorName);\n  }\n\n\n  function acceptGrant(\n      address _issuer,\n      string _key,\n      address _requestor)\n      onlyOwner()\n      public\n  {\n\n    GrantRequest storage request = grants[_requestor][_issuer][_key];\n    request.status = GrantRequestStatus.GRANTED;\n    grants[_requestor][_issuer][_key] = request;\n    GrantAccepted(_issuer, _key, _requestor);\n  }\n\n\n  function rejectGrant(\n      address _issuer,\n      string _key,\n      address _requestor)\n      onlyOwner()\n      public\n  {\n\n    GrantRequest storage request = grants[_requestor][_issuer][_key];\n    request.status = GrantRequestStatus.REJECTED;\n    grants[_requestor][_issuer][_key] = request;\n    GrantRejected(_issuer, _key, _requestor);\n  }\n\n  function addDocument(\n        string _name,\n    \tstring _key,\n    \tstring _issuerName,\n    \tuint _expirationTime,\n    \tstring _offchainUrl)\n\tpublic\n  {\n    address issuer = msg.sender;\n    uint issueTime = now;\n    docIndex += 1;\n    \n    Document memory doc = Document(\n      docIndex,\n      _name,\n      _key,\n      issuer,\n      _issuerName,\n      issueTime,\n      _expirationTime,\n      _offchainUrl);\n\n    documents[issuer][_key] = doc;\n    allDocuments[docIndex] = doc;    \n  }\n\n\n\n}",
  "sourcePath": "/home/luque/work/personal/hackatrips-2018/mnemonic-solidity/contracts/MnemonicVault.sol",
  "compiler": {
    "name": "solc",
    "version": "0.4.18+commit.9cf6e910.Emscripten.clang"
  },
  "schemaVersion": "1.0.1",
  "updatedAt": "2018-01-20T16:19:03.561Z"
}